:100000000C947A000C94A2000C94A2000C94A20010
:100010000C94A2000C94A2000C94A2000C94A200D8
:100020000C94A2000C94A2000C94A2000C94A200C8
:100030000C94A2000C94A2000C94A2000C94A200B8
:100040000C94700B0C94A2000C943E0B0C94180BA7
:100050000C94A2000C94A2000C94A2000C94A20098
:100060000C94A2000C94A200CDCCCC3D0AD7233C2A
:1000700017B7D13877CC2B329595E6241FB14F0AAC
:10008000000020410000C84200401C4620BCBE4C7D
:10009000CA1B0E5AAEC59D74000000002400270044
:1000A0002A0000000000250028002B0000000008A6
:1000B000000201000003040700000000000000002F
:1000C00000000000230026002900040404040404A6
:1000D00004040202020202020303030303030102F7
:1000E00004081020408001020408102001020408C6
:1000F0001020BA0B11241FBECFEFD8E0DEBFCDBF5A
:1001000022E0AAEAB1E001C01D92AF37B207E1F7E1
:1001100011E0A0E0B1E0E2E4F7E202C005900D9248
:10012000AA3AB107D9F710E0CAE7D0E004C0219796
:10013000FE010E94A711C937D107C9F70E94240CFC
:100140000C949F130C940000CF92DF92EF92FF92D9
:10015000CF93DF93B0916F02A0E08111AB2F80911C
:10016000700290E0880F991FAC0140545F4FC0901F
:100170007502D0907602E0907702F090780230E03D
:1001800020E0FA01C591D491E881B90190E080E0C6
:10019000EB23EA130AC02F5F3F4F6C157D058E05D8
:1001A0009F0578F36FEF7FEFCB01DF91CF91FF9049
:1001B000EF90DF90CF900895AF92BF92CF92DF92F1
:1001C000EF92FF920F931F93CF93DF936C017B010C
:1001D0008B01040F151FEB015E01AE18BF08C0179D
:1001E000D10759F06991D601ED91FC910190F08110
:1001F000E02DC6010995892B79F7C501DF91CF91D3
:100200001F910F91FF90EF90DF90CF90BF90AF9034
:100210000895FC01538D448D252F30E0842F90E00C
:10022000821B930B541710F0CF96089501970895F1
:10023000FC01918D828D981761F0A28DAE0FBF2FBA
:10024000B11D5D968C91928D9F5F9F73928F90E010
:1002500008958FEF9FEF0895FC01918D828D98177F
:1002600031F0828DE80FF11D858D90E008958FEFBC
:100270009FEF0895FC01918D228D892F90E0805C85
:100280009F4F821B91098F739927089583EB91E00B
:100290000E943A0121E0892B09F420E0822F089581
:1002A00080E090E0892B29F00E94460181110C9496
:1002B00000000895FC01A48DA80FB92FB11DA35A09
:1002C000BF4F2C91848D90E001968F739927848F76
:1002D000A689B7892C93A089B1898C918370806499
:1002E0008C93938D848D981306C00288F389E02D3A
:1002F00080818F7D80830895EF92FF920F931F93EB
:10030000CF93DF93EC0181E0888F9B8D8C8D9813C8
:100310001AC0E889F989808185FF15C09FB7F894D4
:10032000EE89FF896083E889F98980818370806420
:1003300080839FBF81E090E0DF91CF911F910F916B
:10034000FF90EF900895F62E0B8D10E00F5F1F4F7A
:100350000F731127E02E8C8D8E110CC00FB607FC89
:10036000FACFE889F989808185FFF5CFCE010E9417
:100370005A01F1CFEB8DEC0FFD2FF11DE35AFF4F2A
:10038000F0829FB7F8940B8FEA89FB8980818062A5
:10039000CFCFCF93DF93EC01888D8823B9F0AA8962
:1003A000BB89E889F9898C9185FD03C0808186FD30
:1003B0000DC00FB607FCF7CF8C9185FFF2CF80817F
:1003C00085FFEDCFCE010E945A01E9CFDF91CF9199
:1003D000089590E0FC01E455FF4F2491FC01E252A6
:1003E000FF4F3491FC01E653FF4FE491EE23C9F037
:1003F000222339F0233001F1A8F4213019F1223001
:1004000029F1F0E0EE0FFF1FEE55FF4FA591B491DB
:100410008FB7F894EC91611126C030953E233C9340
:100420008FBF08952730A9F02830C9F0243049F74C
:10043000809180008F7D03C0809180008F778093B2
:100440008000DFCF84B58F7784BDDBCF84B58F7D0F
:10045000FBCF8091B0008F778093B000D2CF809196
:10046000B0008F7DF9CF3E2BDACFCF93DF9390E0B2
:10047000FC01E252FF4F249186539F4FFC0184916F
:100480008823D1F090E0880F991FFC01E856FF4FB8
:10049000A591B491FC01EE55FF4FC591D491623006
:1004A00071F49FB7F8943C91822F809583238C93AD
:1004B000E8812E2B28839FBFDF91CF9108958FB7BE
:1004C000F894EC912E2B2C938FBFF6CF3FB7F89476
:1004D0008091AB019091AC01A091AD01B091AE01C2
:1004E00026B5A89B05C02F3F19F00196A11DB11D8F
:1004F0003FBFBA2FA92F982F8827BC01CD01620FCB
:10050000711D811D911D42E0660F771F881F991F85
:100510004A95D1F708958F929F92AF92BF92CF9252
:10052000DF92EF92FF924B015C010E9466026B0129
:100530007C010E9466026C197D098E099F09683E44
:10054000734081059105A8F321E0821A9108A10862
:10055000B10888EEC80E83E0D81EE11CF11C81149E
:100560009104A104B10429F7FF90EF90DF90CF90A0
:10057000BF90AF909F908F900895CF92DF92EF92AF
:10058000FF920F931F93CF93DF93CDB7DEB7C05485
:10059000D1400FB6F894DEBF0FBECDBF2FB7F89491
:1005A0008091AF019091B001A091B101B091B201E1
:1005B0002FBF40917102509172026091730270914D
:1005C00074028C019D01041B150B260B370BB9011E
:1005D000A801403D57406105710590F48091790272
:1005E000C05CDE4F0FB6F894DEBF0FBECDBFDF910B
:1005F000CF911F910F91FF90EF90DF90CF900895D2
:100600008093710290937202A0937302B09374026C
:1006100010926C0210926B0210926A0210926902A0
:100620001092680262E080916D020E94350261E0E2
:1006300070E080E090E00E948B0261E080916D02AA
:100640000E94350260E080916D020E94E901809174
:100650006E028551823020F58BE291E10197F1F72E
:1006600062E080916D020E94350280917A0290E0F2
:100670008230910538F0880F991F880F991F0597D0
:100680000197F1F7F89480E00E94A4006F3F7F4F3C
:100690008F4F9F4F61F410927902789480E0A0CF41
:1006A00064E170E080E090E00E948B02D9CF81E0AD
:1006B0000E94A4006F3F7F4F8F4F9F4F61F38E01C9
:1006C0000F5F1F4F6E018FEBC81A8EEFD80A7801AB
:1006D00080E00E94A400F70160837183828393838A
:1006E00081E00E94A400F701648375838683978369
:1006F000F8E0EF0EF11CEC14FD0451F7789430E0B3
:1007000020E0F801C080D180E280F38044815581EF
:1007100066817781FFEFCF16DF06EF06FF0631F027
:100720004F3F8FEF58076807780719F41092790246
:10073000B5CFF90183E0F595E7958A95E1F7E8599A
:10074000FD4F8081880FC416D506E606F70610F126
:1007500080832F5F3F4F085F1F4F2832310589F696
:1007600040916C022091680280916902280F332722
:10077000331F80916A02280F311D80916B02820F16
:10078000932F911D99274817190681F681E08093D0
:10079000790226CF8160DCCF089590E080E0089553
:1007A000FC012581222339F0F8E02F029001112469
:1007B000820F931F089590E080E00895FB0101905F
:1007C0000020E9F73197AF01461B570BDC01ED9193
:1007D000FC910280F381E02D09948F929F92AF9259
:1007E000BF92EF92FF920F931F93CF93DF93CDB7FA
:1007F000DEB7A1970FB6F894DEBF0FBECDBF7C0168
:10080000FA01CB0119A2223008F42AE08E010F5D13
:100810001F4F822E912CB12CA12CBF01A501940158
:100820000E948511F901CA016A300CF5605DD8019A
:100830006E938D01232B242B252B79F790E080E0FC
:10084000109721F0BD01C7010E94DE03A1960FB6EB
:10085000F894DEBF0FBECDBFDF91CF911F910F91F6
:10086000FF90EF90BF90AF909F908F900895695C3C
:10087000DECFEF92FF920F931F93CF93DF93EC01A4
:100880008C81982F9F7739F4807880628C831982CD
:1008900018821B821A828C8185FD09C080E090E05D
:1008A000DF91CF911F910F91FF90EF900895611507
:1008B0007105A1F37A018B0188819981009749F133
:1008C000DC011696ED91FC91D8010D900020E9F71E
:1008D0001197AD01401B510B30E020E0309749F0FB
:1008E000DF010D900020E9F79D01215031092E1BF9
:1008F0003F0B2417350751F4D801200F311F2A1759
:100900003B0771F25D9141915417C9F30E94D003E6
:10091000D5CFD7011496ED91FC91159712968D9134
:100920009C9113970896E817F90720F481E0189630
:100930008C93B4CF38971596FC93EE931497309719
:1009400009F4ACCFAA81BB81109791F0CF018A1B2B
:100950009B0B23E0959587952A95E1F715968C9347
:10096000FB83EA831582148217830683CF0198CF15
:10097000F983E883F5CF0F931F93CF93DF93EC01B7
:1009800088819981009759F02A813B812617370782
:1009900030F081E0DF91CF911F910F9108958B018D
:1009A0006F5F7F4F0E94D212009759F0998388831E
:1009B0001B830A832C813D81232B59F7FC01108274
:1009C000E8CF80E0E7CFCF92DF92EF92FF920F93D4
:1009D0001F93CF93DF938C01DC019296ED91FC91F4
:1009E000E80FF91F12826C01B2E0CB0ED11CC114CA
:1009F000D10449F1F60101900020E9F73197EC1993
:100A0000FD09F1F0DC01ED90FC90D7011496CD9139
:100A1000DC91CE0FDF1FBE01C7010E94BB048823FB
:100A200091F0F7012081318184819581B601820F97
:100A3000931F0E949813D7011596DC93CE931497B9
:100A4000F80113A212A2D80192968D919C91DF9188
:100A5000CF911F910F91FF90EF90DF90CF9008956D
:100A60001F93CF93DF93EC01162F8AA19BA10196D0
:100A70008097B8F48AA19BA19C012F5F3F4F3BA3B5
:100A80002AA38C0F9D1FFC01128321E030E08CA172
:100A90009DA1820F931F9DA38CA3DF91CF911F91E6
:100AA0000895CE010E94E304892B21F330E020E079
:100AB000EECFBF92CF92DF92EF92FF920F931F93F0
:100AC000CF93DF93EC016A018B017B01E40EF51EED
:100AD000E016F106D1F0F801B1908F018AA19BA137
:100AE0000196809760F48AA19BA19C012F5F3F4FE4
:100AF0003BA32AA38C0F9D1FFC01B282E9CFCE013C
:100B00000E94E304892B79F3E3CF4CA15DA14C0D46
:100B10005D1D5DA34CA3DF91CF911F910F91FF90BD
:100B2000EF90DF90CF90BF9008958F929F92AF92F9
:100B3000BF92CF92DF92EF92FF920F931F93CF93CA
:100B4000DF93CDB7DEB766970FB6F894DEBF0FBE62
:100B5000CDBF6C018E01095E1F4F78018AE0882E9F
:100B6000912CA12CB12CCB01BA01A50194010E94BA
:100B70008511942F852F605DF80162938F01A90183
:100B8000692F782F411551056105710561F7A7019E
:100B90004E1B5F0BBF01C6010E94590566960FB63A
:100BA000F894DEBF0FBECDBFDF91CF911F910F91A3
:100BB000FF90EF90DF90CF90BF90AF909F908F907D
:100BC0000895FB0101900020E9F73197AF01461B22
:100BD000570B0C9459051F93CF93DF93E4E2F1E098
:100BE0001281112379F0329621816213F9CFEC0141
:100BF0006CE50E943005612FCE01DF91CF911F91EE
:100C00000C9430056111F9CF65E371E0DF91CF916C
:100C10001F910C94E1052F923F924F925F926F9239
:100C20007F928F929F92AF92BF92CF92DF92EF927C
:100C3000FF920F931F93CF93DF93CDB7DEB76C97DF
:100C40000FB6F894DEBF0FBECDBF8C011B01DC01D7
:100C500014968C9114978F77863009F499C268F5B1
:100C60008230A0F11296ED90FC901397CC901196E3
:100C7000DC90843008F05DC2A701B601C1010E947A
:100C80005905F10184A195A16C960FB6F894DEBFC9
:100C90000FBECDBFDF91CF911F910F91FF90EF90CD
:100CA000DF90CF90BF90AF909F908F907F906F908C
:100CB0005F904F903F902F9008958C3069F160F4D1
:100CC000883009F460C28A3009F446C26CE371E0EE
:100CD000C1010E94E105ECC1803209F4F3C1803406
:100CE000A9F76BE5C1010E943005F801008111816F
:100CF0000115110509F4E1C1B101C8010E940B06FB
:100D0000C8010E94D0038C01892B09F4D6C16CE282
:100D1000C1010E943005ECCFF801C080D180E28093
:100D2000F380A7019601C701B6010E94FE0E811152
:100D3000CDCF20E030E0A901C701B6010E94FE0E30
:100D4000882379F0A7019601C701B6010E945A10C5
:100D50009B01AC01C701B6010E94FE0E882309F475
:100D6000B5CF20E030E0A901C701B6010E94FE0E18
:100D700087FF08C06DE2C1010E943005F7FAF094C8
:100D8000F7F8F09420E836E948E15BE4C701B601E2
:100D90000E94671187FD88C074E1A72EB12C00E284
:100DA00010E0188E1F8AF501E058FF4F659175918C
:100DB00085919491A70196010E94FE0E18169CF051
:100DC000F501E859FF4F2591359145915491C7019F
:100DD000B6010E94640F6B017C012F89388D200FB2
:100DE000311F388F2F8B1595079534E0A31AB10862
:100DF0008CEFA8168FEFB806B1F655245A9420E070
:100E000030E0A901C701B6010E94671118160CF065
:100E100052C02CEA35EC47E257E3C701B6010E9405
:100E2000FE0E18160CF447C0A52DB4E0AB02C001AD
:100E30001124B12CA12CFC01E859FF4F3F019C016A
:100E400020583F4F49013FEF531609F434C0F301D6
:100E5000EA0DFB1D659175918591949120E030E03C
:100E600040E251E40E94640FA70196010E946711BD
:100E700018169CF4F401EA0DFB1D2591359145915E
:100E80005491C701B6010E94640F6B017C018F89E8
:100E9000988D801B910B988F8F8B159507955A9481
:100EA00094E0A91AB108CFCF00E210E055E0552E2A
:100EB000188E1F8AA4CFC701B6010E9438114B01BA
:100EC0005C012B013C0106E080E492E4AFE0B0E07D
:100ED000898F9A8FAB8FBC8F102F01509AE04916E3
:100EE000510461047104C8F0698D7A8D8B8D9C8DDD
:100EF0002AE030E040E050E00E948511298F3A8FCF
:100F00004B8F5C8FC301B2012AE030E040E050E03B
:100F10000E94851129013A01DFCFC501B4010E9469
:100F2000030F9B01AC01C701B6010E9459106B0170
:100F30007C01698D7A8D8B8D9C8D0E94030F9B01A6
:100F4000AC01C701B6010E94640F2B013C010E9455
:100F500038116B017C010E94030F9B01AC01C3019E
:100F6000B2010E9459109B01AC010E945A100E94CC
:100F70003811C60ED71EE81EF91E898D9A8DAB8DCD
:100F8000BC8DC816D906EA06FB06D8F09FEF891A71
:100F9000990AA90AB90AAF89B88DAB2B39F1BAE021
:100FA0008B169104A104B10408F1EF89F88D3196F4
:100FB000F88FEF8BC12CD12C7601812C912C540110
:100FC00083942AE0422E512C612C712CC701B6016A
:100FD000A30192010E948511672B682B692B51F4A4
:100FE000111644F469017A011150F0CFC12CD12CB3
:100FF0007601E7CFB501A401C1010E949505112337
:1010000071F14E01F1E18F0E911C012F54019AE014
:10101000492E512C612C712C015068F0C701B6018A
:10102000A30192010E948511605DD4016E934D0170
:1010300069017A01F1CF812F90E0BC016095709534
:10104000F501E81BF90B31978EE280834427552781
:10105000461B570B6A0D7B1DC1010E945905EF8984
:10106000F88DEF2B29F165E6C1010E9430050F894B
:10107000188D17FF07C06DE2C1010E943005119560
:1010800001951109FE0177969F018AE0E82EF12C67
:10109000C801B7010E947111805D82938B01672B9B
:1010A000B9F7A9014E1B5F0BBF01C1010E94590591
:1010B000D10194968D919C91E7CD6DE5C1010E947F
:1010C0003005F6CF6BE7C1010E943005F8010081C1
:1010D00011810115110559F1D8011696CC9016977A
:1010E0001796DC9062E2C1010E9430057601F7019B
:1010F00061917F01662321F0C1010E94EB05F7CFCA
:1011000062E2C1010E9430056AE3C1010E9430051C
:10111000B101C8010E940B06C8010E94D0038C01D6
:10112000892B29F06CE2C1010E943005D2CF6DE716
:10113000C5CF62E2C1010E9430058601E00EF11EBA
:10114000E016F10639F0F80161918F01C1010E94AA
:10115000EB05F6CF62E2B2CFCD90DD90ED90FC9042
:10116000B701A601F7FE0BC06DE2C1010E94300578
:1011700044275527BA014C195D096E097F09C10141
:101180000E9495057ECD4D915D916D917C91F7CF3B
:101190008C9161E471E0811102C066E471E0C101EB
:1011A0000E94E1056ECD2F923F924F925F926F9217
:1011B0007F928F929F92AF92BF92CF92DF92EF92E7
:1011C000FF921F93CF93DF93EC016A017B01722E94
:1011D000AB019601CB01B6010E946C116CE471E089
:1011E000811126C046015701E894B7F82FEF3FEF71
:1011F0004FE75FE7C501B4010E946C1181110CC07B
:101200002FEF3FEF4FE75FE7C501B4010E94FE0EED
:1012100060E571E0181664F02FEF3FEF4FE75FE4F1
:10122000C701B6010E9467111816B4F464E571E0B5
:10123000CE01DF91CF911F91FF90EF90DF90CF9083
:10124000BF90AF909F908F907F906F905F904F90E6
:101250003F902F900C94DE032FEF3FEF4FE75FECB2
:10126000C701B6010E94FE0E87FDE0CF20E030E00E
:10127000A901C701B6010E94FE0E312C212C87FF67
:101280000DC0E881F9810190F081E02D6DE2CE0181
:1012900009951C01F7FAF094F7F8F09410E060E07B
:1012A00070E080E09FE3711641F020E030E040E222
:1012B00051E40E94C6101F5FF6CFA70196010E945D
:1012C0005A102B013C010E9438114B015C012AE0AD
:1012D000BC01A401CE010E94ED037C01E20CF31CD1
:1012E0001123E1F1C501B4010E94030F9B01AC0180
:1012F000C301B2010E9459104B015C01E881F981E0
:101300000190F081E02D6EE2CE010995E80EF91E04
:10131000115020F120E030E040E251E4C501B40179
:101320000E94640F2B013C010E9438114B01B12C2B
:10133000A12C2AE0B501A401CE010E94ED03E80E24
:10134000F91EC501B4010E94030F9B01AC01C3014A
:10135000B2010E9459104B015C01DACFC701DF9145
:10136000CF911F91FF90EF90DF90CF90BF90AF9003
:101370009F908F907F906F905F904F903F902F90B5
:101380000895CF93DF93EC0160E08E810E94E90124
:1013900061E08E810E94E90160E08E810E94E90196
:1013A0008BE891E00197F1F7DF91CF910895CF920B
:1013B000DF92EF92FF920F931F93CF93DF936C0115
:1013C0007C0187E0E80EF11CD0E0C0E0062F10E0C1
:1013D000B8010C2E02C0759567950A94E2F761700A
:1013E000F70181917F010E94E9012196C430D10566
:1013F00079F7C601DF91CF911F910F91FF90EF9088
:10140000DF90CF900C94C109CF92DF92EF92FF92C0
:101410000F931F93CF93DF93EC01F62E642F8C81F3
:101420000E94E9018D818F3F19F060E00E94E9017F
:101430000F2D10E08F8584FF25C06E0187E0C80E58
:10144000D11CF12CE12CB8010E2C02C075956795CA
:101450000A94E2F76170F60181916F010E94E9013F
:10146000FFEFEF1AFF0A88E0E816F10461F7CE01FA
:10147000DF91CF911F910F91FF90EF90DF90CF9070
:101480000C94C109B80184E0759567958A95E1F7D8
:10149000CE010E94D7096F2DCE01DF91CF911F9110
:1014A0000F91FF90EF90DF90CF900C94D70940E020
:1014B000682F80E592E00C94040ACF93DF9382308A
:1014C00029F490915F02986090935F028093630289
:1014D0001092640280E48093650280E1809366024A
:1014E00080E58093670261E0809154020E9435029A
:1014F000809155028F3F19F061E00E94350261E052
:10150000809156020E943502C0E5D2E09E0120552E
:10151000324080915F0284FD0BC084E090E0219610
:101520002817390744F461E08E810E943502EECF1E
:1015300088E090E0F4CF8BE39DE00197F1F760E065
:10154000809154020E94E90160E0809156020E945D
:10155000E901809155028F3F19F060E00E94E90196
:1015600080915F0284FD39C063E080E592E00E94D3
:10157000D709CBE4D6E4CE010197F1F763E080E52B
:1015800092E00E94D7092197F1F763E080E592E0AD
:101590000E94D70983E592E00197F1F762E080E5C8
:1015A00092E00E94D70980915F0280620E94570AF0
:1015B00084E0809360028CE00E94570A81E00E94E0
:1015C000570A8BE39FE10197F1F782E08093610274
:1015D00086E0DF91CF910C94570A80620E94570AEF
:1015E0008BE496E40197F1F780915F0280620E949C
:1015F000570A83E592E00197F1F780915F028062DC
:101600000E94570AD0CF90916302691710F06FEFD4
:10161000690FE62FF0E0E05BFD4F9489890F806849
:101620000C94570A41E00E94040A81E090E008957A
:101630001F920F920FB60F9211242F933F934F9347
:101640005F936F937F938F939F93AF93BF93EF932A
:10165000FF9383EB91E00E945A01FF91EF91BF91BC
:10166000AF919F918F917F916F915F914F913F913A
:101670002F910F900FBE0F901F9018951F920F92F1
:101680000FB60F9211242F938F939F93EF93FF9395
:10169000E091C301F091C4018081E091C901F09112
:1016A000CA0182FD1BC090818091CC018F5F8F7336
:1016B0002091CD01821741F0E091CC01F0E0ED5492
:1016C000FE4F958F8093CC01FF91EF919F918F9169
:1016D0002F910F900FBE0F901F9018958081F4CF1F
:1016E0001F920F920FB60F9211242F933F938F9357
:1016F0009F93AF93BF938091AF019091B001A09160
:10170000B101B091B2013091AA0123E0230F2D372E
:1017100058F50196A11DB11D2093AA018093AF0138
:101720009093B001A093B101B093B2018091AB014D
:101730009091AC01A091AD01B091AE010196A11DB7
:10174000B11D8093AB019093AC01A093AD01B09318
:10175000AE01BF91AF919F918F913F912F910F90CB
:101760000FBE0F901F90189526E8230F0296A11D1B
:10177000B11DD2CFE3EBF1E01382128288EE93E049
:10178000A0E0B0E084839583A683B7838AE091E0EC
:101790009183808385EC90E09587848784EC90E04A
:1017A0009787868780EC90E0918B808B81EC90E02E
:1017B000938B828B82EC90E0958B848B86EC90E00F
:1017C000978B868B118E128E138E148EA8E6B2E044
:1017D00085E015968C93159786E116968C9316974F
:1017E000E3EEF0E0E4911796EC931797EFECF0E05E
:1017F000E4911896EC93189740E85EE360E070E09F
:101800001D964D935D936D937C935097E0E5F2E0C8
:10181000138212828CE191E0918380838CE0848337
:101820008FEF85838BE086838AE0878389E08087DA
:1018300088E0818787E0828713861486158616865E
:10184000178681E00C945D0ACF93DF93CDB7DEB7A6
:10185000C259D1400FB6F894DEBF0FBECDBF789409
:1018600084B5826084BD84B5816084BD85B58260A5
:1018700085BD85B5816085BD80916E008160809356
:101880006E001092810080918100826080938100BF
:1018900080918100816080938100809180008160CF
:1018A000809380008091B10084608093B10080912A
:1018B000B00081608093B00080917A008460809352
:1018C0007A0080917A00826080937A0080917A0019
:1018D000816080937A0080917A00806880937A009A
:1018E0001092C10061E088E00E94350261E08DE065
:1018F0000E94350262E080916D020E9435022FB78E
:10190000F8948091AF019091B001A091B101B09194
:10191000B2012FBF805D9740A109B1098093710288
:1019200090937202A0937302B093740287E3809342
:101930007A0282E00E945D0A60E080E00E94030B70
:1019400068E571E080E592E00E94DE0361E080E0FE
:101950000E94030B65E671E080E592E00E94DE03E1
:10196000E091C301F091C40182E08083E091BF0166
:10197000F091C0011082E091C101F091C2018FECA1
:1019800080831092CB01E091C701F091C80186E0FD
:101990008083E091C501F091C601808180618083E0
:1019A000E091C501F091C601808188608083E0915B
:1019B000C501F091C601808180688083E091C501F6
:1019C000F091C60180818F7D80836E018FE0C80E0B
:1019D000D11C7E01E7EDEE0EF11C8E0103571E4F68
:1019E00090E0292E90E0392E0E94BD02882341F01C
:1019F00080916E028C3009F464C038F48B30F1F0C1
:101A000060E070E080EC9FE741C085518230C0F714
:101A1000B0906A026B2D70E0762F662766277F777D
:101A200080916B02682B90E080E00E94030F2DEC08
:101A30003CEC4CEC5DE30E94640F5FC060916A0275
:101A400070E090E080E00E94030F4B015C01709019
:101A50006B0277FE0AC0AC019B0160E070E080E899
:101A60009FEB0E9459104B015C01672D6F7070E075
:101A700090E080E00E94050F2DEC3CEC4CEC5DE327
:101A80000E94640FA50194010E945A1020E030E0EA
:101A900040E251E40E94C6104B015C010E94BD026D
:101AA000882351F080916E028B3030F08D3048F1F8
:101AB0008551823008F478C160E070E080EC9FE7E7
:101AC0003CC0B0906A026B2D70E090E080E00E9414
:101AD000030F2B013C0160916B026F7070E090E08E
:101AE00080E00E94050F2DEC3CEC4CEC5DE30E9485
:101AF000640FA30192010E945A10B7FEC7CF9058FD
:101B0000C5CF6091690270E090E080E00E94050F0F
:101B10002DEC3CEC4CEC5DE30E94640F2B013C018E
:101B20006091680270E090E080E00E94050F9B01E8
:101B3000AC01C301B2010E945A1020E030E048EC31
:101B400052E40E94C6102B013C01DA82C982DC8279
:101B5000CB82FE82ED82F886EF8219861E86AE0168
:101B60004F5F5F4F6EE671E0CE010A960E94390426
:101B7000FC01892B41F0948190789C609483808251
:101B80009182A282B382AE014F5F5F4F6AE771E03C
:101B9000CE010A960E943904FC01892B41F0948100
:101BA00090789C6094834082518262827382F801B3
:101BB00011821082138212821582148270E060E01A
:101BC000C8010E94BB04F801208131818111FEC04F
:101BD0002115310519F0C9010E944912F80111823D
:101BE00010821582148213821282C759DE4F198324
:101BF0000883C956D140C557DE4F19821882CB5889
:101C0000D14084E2FE01E759FE4FDE01AB5BBE4FDF
:101C100001900D928A95E1F784E2FE01EB5BFE4FA5
:101C2000DE01AF5DBE4F01900D928A95E1F784E22F
:101C3000FE01EF5DFE4FDE01A350BF4F01900D92FC
:101C40008A95E1F784E2FE01E350FF4FD70101904E
:101C50000D928A95E1F7F70115A214A2CE018350E7
:101C60009F4F0E94E304CE018F5D9E4F0E94E304CC
:101C7000B701CE010A960E940B06C7010E94E30439
:101C8000CE018B5B9E4F0E94E304CE0187599E4F8D
:101C90000E94E304F801448155816081718183EBE6
:101CA00091E00E94DC0062E871E083EB91E00E9429
:101CB000DE0360E08DE00E94030B65E871E080E5E3
:101CC00092E00E94DE0360E08DE00E94030B22E0C0
:101CD000B501A40180E592E00E94D30861E088E0AC
:101CE0000E94030B65E871E080E592E00E94DE034C
:101CF00061E088E00E94030B22E0B301A20180E5CD
:101D000092E00E94D3086AE871E083EB91E00E94C0
:101D1000DE0322E0B501A40183EB91E00E94D30829
:101D200068E971E083EB91E00E94DE0322E0B301F9
:101D3000A20183EB91E00E94D30867EA71E083EB94
:101D400091E00E94DE0362E871E083EB91E00E9483
:101D5000DE0320E030E04CE052E4C501B4010E9413
:101D6000671187FD3BC060E088E00E94E90161E007
:101D70008DE00E94E90168EE73E080E090E00E944F
:101D80008B02F80180819181009711F00E94491225
:101D90002114310409F428CE0E944601882309F455
:101DA00023CE0E94000020CE6091680270916902EB
:101DB00076276727762790E080E00E94030F2DECBE
:101DC0003CEC4CEC5DE30E94640FB7CE15821482AC
:101DD00064E371E0C9010E94981307CF20E030E06E
:101DE000A901C501B4010E94FE0E61E018160CF4B1
:101DF00060E088E00E94E90160E0BACF0E94400FF5
:101E000008F481E00895E89409C097FB3EF49095AA
:101E10008095709561957F4F8F4F9F4F9923A9F0C3
:101E2000F92F96E9BB279395F69587957795679552
:101E3000B795F111F8CFFAF4BB0F11F460FF1BC096
:101E40006F5F7F4F8F4F9F4F16C0882311F096E929
:101E500011C0772321F09EE8872F762F05C06623D7
:101E600071F096E8862F70E060E02AF09A95660F90
:101E7000771F881FDAF7880F9695879597F9089549
:101E8000990F0008550FAA0BE0E8FEEF161617068B
:101E9000E807F907C0F012161306E407F50798F0F3
:101EA000621B730B840B950B39F40A2661F0232B0C
:101EB000242B252B21F408950A2609F4A140A69588
:101EC0008FEF811D811D08950E94770F0C94E80FFC
:101ED0000E94DA0F38F00E94E10F20F0952311F0F4
:101EE0000C94D10F0C94D70F11240C941C100E9449
:101EF000F90F70F3959FC1F3950F50E0551F629F46
:101F0000F001729FBB27F00DB11D639FAA27F00D52
:101F1000B11DAA1F649F6627B00DA11D661F829F79
:101F20002227B00DA11D621F739FB00DA11D621F5E
:101F3000839FA00D611D221F749F3327A00D611D7B
:101F4000231F849F600D211D822F762F6A2F11245D
:101F50009F5750409AF0F1F088234AF0EE0FFF1F90
:101F6000BB1F661F771F881F91505040A9F79E3FE7
:101F7000510580F00C94D10F0C941C105F3FE4F3DA
:101F8000983ED4F3869577956795B795F795E7953D
:101F90009F5FC1F7FE2B880F911D9695879597F946
:101FA000089597F99F6780E870E060E008959FEFDB
:101FB00080EC089500240A941616170618060906E0
:101FC000089500240A9412161306140605060895AF
:101FD000092E0394000C11F4882352F0BB0F40F437
:101FE000BF2B11F460FF04C06F5F7F4F8F4F9F4F77
:101FF000089557FD9058440F551F59F05F3F71F0F9
:102000004795880F97FB991F61F09F3F79F087955F
:102010000895121613061406551FF2CF4695F1DFE8
:1020200008C0161617061806991FF1CF8695710578
:10203000610508940895E894BB2766277727CB01AC
:1020400097F908952F923F924F925F926F927F92ED
:102050008F929F92AF92BF92CF92DF92EF92FF92B8
:102060000F931F93CF93DF93CDB7DEB7CA1BDB0B64
:102070000FB6F894DEBF0FBECDBF09942A88398809
:1020800048885F846E847D848C849B84AA84B98410
:10209000C884DF80EE80FD800C811B81AA81B9811C
:1020A000CE0FD11D0FB6F894DEBF0FBECDBFED0130
:1020B00008955058BB27AA270E9471100C94E80F6E
:1020C0000E94DA0F38F00E94E10F20F039F49F3FB0
:1020D00019F426F40C94D70F0EF4E095E7FB0C945A
:1020E000D10FE92F0E94F90F58F3BA17620773074F
:1020F0008407950720F079F4A6F50C941B100EF4D4
:10210000E0950B2EBA2FA02D0B01B90190010C0107
:10211000CA01A0011124FF27591B99F0593F50F41F
:10212000503E68F11A16F040A22F232F342F442777
:10213000585FF3CF469537952795A795F04053956F
:10214000C9F77EF41F16BA0B620B730B840BBAF03F
:102150009150A1F0FF0FBB1F661F771F881FC2F7AA
:102160000EC0BA0F621F731F841F48F487957795BE
:102170006795B795F7959E3F08F0B0CF9395880F78
:1021800008F09927EE0F9795879508950E94DA1029
:102190000C94E80F0E94E10F58F00E94DA0F40F013
:1021A00029F45F3F29F00C94D10F51110C941C10AD
:1021B0000C94D70F0E94F90F68F39923B1F35523BC
:1021C00091F3951B550BBB27AA276217730784074A
:1021D00038F09F5F5F4F220F331F441FAA1FA9F3E0
:1021E00035D00E2E3AF0E0E832D091505040E695CE
:1021F000001CCAF72BD0FE2F29D0660F771F881F2F
:10220000BB1F261737074807AB07B0E809F0BB0B21
:10221000802DBF01FF2793585F4F3AF09E3F510535
:1022200078F00C94D10F0C941C105F3FE4F3983EAF
:10223000D4F3869577956795B795F7959F5FC9F71E
:10224000880F911D9695879597F90895E1E0660F9F
:10225000771F881FBB1F621773078407BA0720F018
:10226000621B730B840BBA0BEE1F88F7E095089581
:102270000E94011088F09F5798F0B92F9927B75105
:10228000B0F0E1F0660F771F881F991F1AF0BA951A
:10229000C9F714C0B13091F00E941B10B1E008954D
:1022A0000C941B10672F782F8827B85F39F0B93F3F
:1022B000CCF3869577956795B395D9F73EF49095CD
:1022C0008095709561957F4F8F4F9F4F08950E9425
:1022D000400F08F48FEF08950E94400F880B990B70
:1022E0000895AA1BBB1B51E107C0AA1FBB1FA6175D
:1022F000B70710F0A61BB70B881F991F5A95A9F7AF
:1023000080959095BC01CD010895A1E21A2EAA1BDB
:10231000BB1BFD010DC0AA1FBB1FEE1FFF1FA21795
:10232000B307E407F50720F0A21BB30BE40BF50B92
:10233000661F771F881F991F1A9469F7609570951B
:10234000809590959B01AC01BD01CF010895EE0FE2
:10235000FF1F0590F491E02D09940F931F93CF93E5
:10236000DF938230910510F482E090E0E0917D02ED
:10237000F0917E0230E020E0B0E0A0E0309799F4E8
:102380002115310509F44AC0281B390B24303105C9
:10239000D8F58A819B816115710589F1FB019383D1
:1023A0008283FE0111C0408151810281138148174F
:1023B0005907E0F04817590799F4109761F0129601
:1023C0000C93129713961C933296CF01DF91CF9105
:1023D0001F910F91089500937D0210937E02F4CF18
:1023E0002115310551F04217530738F0A901DB01DF
:1023F0009A01BD01DF01F801C1CFEF01F9CF909340
:102400007E0280937D02CDCFFE01E20FF31F819308
:1024100091932250310939832883D7CF20917B02B1
:1024200030917C02232B41F4209102013091030171
:1024300030937C0220937B022091000130910101B6
:102440002115310541F42DB73EB74091040150915B
:102450000501241B350BE0917B02F0917C02E21711
:10246000F307A0F42E1B3F0B2817390778F0AC01B7
:102470004E5F5F4F2417350748F04E0F5F1F509394
:102480007C0240937B02819391939FCFF0E0E0E048
:102490009CCFCF93DF930097E9F0FC013297138232
:1024A0001282A0917D02B0917E02ED0130E020E029
:1024B0001097A1F420813181820F931F20917B021C
:1024C00030917C022817390709F061C0F0937C0233
:1024D000E0937B02DF91CF910895EA01CE17DF07E9
:1024E000E8F54A815B819E0141155105B1F7E9018B
:1024F000FB83EA8349915991C40FD51FEC17FD075F
:1025000061F4808191810296840F951FE90199837E
:102510008883828193819B838A83F0E0E0E0129636
:102520008D919C9113970097B9F52D913C9111973E
:10253000CD010296820F931F20917B0230917C0285
:102540002817390739F6309751F510927E0210920C
:102550007D02B0937C02A0937B02BCCFD383C28365
:1025600040815181840F951FC817D90761F44E5FD0
:102570005F4F88819981480F591F518340838A8119
:102580009B81938382832115310509F0B0CFF093AD
:102590007E02E0937D029ECFFD01DC01C0CF13825D
:1025A0001282D7CFB0E0A0E0E8EDF2E10C94241065
:1025B0008C01009751F4CB010E94AD118C01C80130
:1025C000CDB7DEB7E0E10C944010FC01E60FF71F39
:1025D0009C0122503109E217F30708F49DC0D9018C
:1025E000CD91DC911197C617D70798F0C530D1056A
:1025F00030F3CE0104978617970708F3C61BD70B55
:102600002297C193D1936D937C93CF010E9449127D
:10261000D6CF5B01AC1ABD0A4C018C0E9D1EA09159
:102620007D02B0917E02512C412CF12CE12C1097AF
:1026300031F580917B0290917C028815990509F013
:102640005CC04616570608F058C080910001909172
:102650000101009741F48DB79EB74091040150915C
:102660000501841B950BE817F90708F055C0F09396
:102670007C02E0937B02F90171836083A0CF8D918E
:102680009C91119712966C90129713967C901397C9
:10269000A815B90559F56C0142E0C40ED11CCA1445
:1026A000DB0420F1AC014A195B09DA011296159797
:1026B00080F06282738251834083D9016D937C9351
:1026C000E114F10471F0D7011396FC93EE93129785
:1026D00076CF22968C0F9D1FF90191838083F301A1
:1026E000EFCFF0937E02E0937D0269CF4816590642
:1026F00008F42C017D01D3019ACFCB010E94AD11CA
:102700007C01009749F0AE01B8010E948F13C80107
:102710000E944912870153CF10E000E050CFFB0127
:10272000DC0102C001900D9241505040D8F708954D
:10273000FB01DC0101900D920020E1F70895F8946F
:02274000FFCFC9
:1027420000007F028000000000007C01DC00090123
:10275200C9013A0118012C0100000000120BDC0033
:10276200CD03CC032F2F22225C5C6208660C6E0A1A
:10277200720D7409005C7530303030006E756C6C0F
:1027820000747275650066616C7365006E616E003F
:10279200696E66006F76660054656D70657261746D
:1027A2007572613A00556D69646164653A007465D9
:1027B2006D706572617475726100756D69646164D2
:1027C20065000D0A00202020200054656D7065729E
:1027D20061747572613A2000C2B0432C20556D6954
:0A27E200646164653A2000250000E0
:00000001FF
